:020000020000FC
:1000000010C0189518951895189518951895189565
:100010001895189518951895189518951895189578
:10002000189504E00EBF1FE51DBF0FEF07BB00C012
:1000300008BB1FEF0E94200008B3012708BBFACFBE
:1000400054E162E30E9426005A95E1F75F936F93B3
:100050000F931F93BEB7ADB776E083E061E07F9367
:100060008F936F93DEB7CDB7BEBFADBF1F910F911A
:100070006F915F9108950000000000000000FBCF29
:00000001FF
